{
  "_format": "hh-sol-artifact-1",
  "contractName": "Frens",
  "sourceName": "contracts/Frens.sol",
  "abi": [
    {
      "inputs": [],
      "stateMutability": "nonpayable",
      "type": "constructor"
    },
    {
      "anonymous": false,
      "inputs": [
        {
          "indexed": true,
          "internalType": "address",
          "name": "owner",
          "type": "address"
        },
        {
          "indexed": true,
          "internalType": "address",
          "name": "approved",
          "type": "address"
        },
        {
          "indexed": true,
          "internalType": "uint256",
          "name": "tokenId",
          "type": "uint256"
        }
      ],
      "name": "Approval",
      "type": "event"
    },
    {
      "anonymous": false,
      "inputs": [
        {
          "indexed": true,
          "internalType": "address",
          "name": "owner",
          "type": "address"
        },
        {
          "indexed": true,
          "internalType": "address",
          "name": "operator",
          "type": "address"
        },
        {
          "indexed": false,
          "internalType": "bool",
          "name": "approved",
          "type": "bool"
        }
      ],
      "name": "ApprovalForAll",
      "type": "event"
    },
    {
      "anonymous": false,
      "inputs": [
        {
          "indexed": true,
          "internalType": "address",
          "name": "previousOwner",
          "type": "address"
        },
        {
          "indexed": true,
          "internalType": "address",
          "name": "newOwner",
          "type": "address"
        }
      ],
      "name": "OwnershipTransferred",
      "type": "event"
    },
    {
      "anonymous": false,
      "inputs": [
        {
          "indexed": true,
          "internalType": "address",
          "name": "from",
          "type": "address"
        },
        {
          "indexed": true,
          "internalType": "address",
          "name": "to",
          "type": "address"
        },
        {
          "indexed": true,
          "internalType": "uint256",
          "name": "tokenId",
          "type": "uint256"
        }
      ],
      "name": "Transfer",
      "type": "event"
    },
    {
      "inputs": [
        {
          "internalType": "address",
          "name": "to",
          "type": "address"
        },
        {
          "internalType": "uint256",
          "name": "tokenId",
          "type": "uint256"
        }
      ],
      "name": "approve",
      "outputs": [],
      "stateMutability": "nonpayable",
      "type": "function"
    },
    {
      "inputs": [
        {
          "internalType": "address",
          "name": "owner",
          "type": "address"
        }
      ],
      "name": "balanceOf",
      "outputs": [
        {
          "internalType": "uint256",
          "name": "",
          "type": "uint256"
        }
      ],
      "stateMutability": "view",
      "type": "function"
    },
    {
      "inputs": [
        {
          "internalType": "uint256",
          "name": "tokenId",
          "type": "uint256"
        }
      ],
      "name": "getApproved",
      "outputs": [
        {
          "internalType": "address",
          "name": "",
          "type": "address"
        }
      ],
      "stateMutability": "view",
      "type": "function"
    },
    {
      "inputs": [
        {
          "internalType": "address",
          "name": "address_",
          "type": "address"
        }
      ],
      "name": "getTokenUriFromAddress",
      "outputs": [
        {
          "internalType": "string[]",
          "name": "",
          "type": "string[]"
        }
      ],
      "stateMutability": "view",
      "type": "function"
    },
    {
      "inputs": [
        {
          "internalType": "address",
          "name": "owner",
          "type": "address"
        },
        {
          "internalType": "address",
          "name": "operator",
          "type": "address"
        }
      ],
      "name": "isApprovedForAll",
      "outputs": [
        {
          "internalType": "bool",
          "name": "",
          "type": "bool"
        }
      ],
      "stateMutability": "view",
      "type": "function"
    },
    {
      "inputs": [
        {
          "internalType": "address",
          "name": "recipient",
          "type": "address"
        },
        {
          "internalType": "string",
          "name": "tokenURI",
          "type": "string"
        }
      ],
      "name": "mintNFT",
      "outputs": [
        {
          "internalType": "uint256",
          "name": "",
          "type": "uint256"
        }
      ],
      "stateMutability": "nonpayable",
      "type": "function"
    },
    {
      "inputs": [],
      "name": "name",
      "outputs": [
        {
          "internalType": "string",
          "name": "",
          "type": "string"
        }
      ],
      "stateMutability": "view",
      "type": "function"
    },
    {
      "inputs": [],
      "name": "owner",
      "outputs": [
        {
          "internalType": "address",
          "name": "",
          "type": "address"
        }
      ],
      "stateMutability": "view",
      "type": "function"
    },
    {
      "inputs": [
        {
          "internalType": "uint256",
          "name": "tokenId",
          "type": "uint256"
        }
      ],
      "name": "ownerOf",
      "outputs": [
        {
          "internalType": "address",
          "name": "",
          "type": "address"
        }
      ],
      "stateMutability": "view",
      "type": "function"
    },
    {
      "inputs": [],
      "name": "renounceOwnership",
      "outputs": [],
      "stateMutability": "nonpayable",
      "type": "function"
    },
    {
      "inputs": [
        {
          "internalType": "address",
          "name": "from",
          "type": "address"
        },
        {
          "internalType": "address",
          "name": "to",
          "type": "address"
        },
        {
          "internalType": "uint256",
          "name": "tokenId",
          "type": "uint256"
        }
      ],
      "name": "safeTransferFrom",
      "outputs": [],
      "stateMutability": "nonpayable",
      "type": "function"
    },
    {
      "inputs": [
        {
          "internalType": "address",
          "name": "from",
          "type": "address"
        },
        {
          "internalType": "address",
          "name": "to",
          "type": "address"
        },
        {
          "internalType": "uint256",
          "name": "tokenId",
          "type": "uint256"
        },
        {
          "internalType": "bytes",
          "name": "_data",
          "type": "bytes"
        }
      ],
      "name": "safeTransferFrom",
      "outputs": [],
      "stateMutability": "nonpayable",
      "type": "function"
    },
    {
      "inputs": [
        {
          "internalType": "address",
          "name": "operator",
          "type": "address"
        },
        {
          "internalType": "bool",
          "name": "approved",
          "type": "bool"
        }
      ],
      "name": "setApprovalForAll",
      "outputs": [],
      "stateMutability": "nonpayable",
      "type": "function"
    },
    {
      "inputs": [
        {
          "internalType": "bytes4",
          "name": "interfaceId",
          "type": "bytes4"
        }
      ],
      "name": "supportsInterface",
      "outputs": [
        {
          "internalType": "bool",
          "name": "",
          "type": "bool"
        }
      ],
      "stateMutability": "view",
      "type": "function"
    },
    {
      "inputs": [],
      "name": "symbol",
      "outputs": [
        {
          "internalType": "string",
          "name": "",
          "type": "string"
        }
      ],
      "stateMutability": "view",
      "type": "function"
    },
    {
      "inputs": [
        {
          "internalType": "uint256",
          "name": "index",
          "type": "uint256"
        }
      ],
      "name": "tokenByIndex",
      "outputs": [
        {
          "internalType": "uint256",
          "name": "",
          "type": "uint256"
        }
      ],
      "stateMutability": "view",
      "type": "function"
    },
    {
      "inputs": [
        {
          "internalType": "address",
          "name": "owner",
          "type": "address"
        },
        {
          "internalType": "uint256",
          "name": "index",
          "type": "uint256"
        }
      ],
      "name": "tokenOfOwnerByIndex",
      "outputs": [
        {
          "internalType": "uint256",
          "name": "",
          "type": "uint256"
        }
      ],
      "stateMutability": "view",
      "type": "function"
    },
    {
      "inputs": [
        {
          "internalType": "uint256",
          "name": "tokenId",
          "type": "uint256"
        }
      ],
      "name": "tokenURI",
      "outputs": [
        {
          "internalType": "string",
          "name": "",
          "type": "string"
        }
      ],
      "stateMutability": "view",
      "type": "function"
    },
    {
      "inputs": [],
      "name": "totalSupply",
      "outputs": [
        {
          "internalType": "uint256",
          "name": "",
          "type": "uint256"
        }
      ],
      "stateMutability": "view",
      "type": "function"
    },
    {
      "inputs": [
        {
          "internalType": "address",
          "name": "from",
          "type": "address"
        },
        {
          "internalType": "address",
          "name": "to",
          "type": "address"
        },
        {
          "internalType": "uint256",
          "name": "tokenId",
          "type": "uint256"
        }
      ],
      "name": "transferFrom",
      "outputs": [],
      "stateMutability": "nonpayable",
      "type": "function"
    },
    {
      "inputs": [
        {
          "internalType": "address",
          "name": "newOwner",
          "type": "address"
        }
      ],
      "name": "transferOwnership",
      "outputs": [],
      "stateMutability": "nonpayable",
      "type": "function"
    }
  ],
  "bytecode": "0x60806040523480156200001157600080fd5b506040518060400160405280600581526020017f4672656e730000000000000000000000000000000000000000000000000000008152506040518060400160405280600581526020017f4652454e53000000000000000000000000000000000000000000000000000000815250816000908051906020019062000096929190620001a6565b508060019080519060200190620000af929190620001a6565b505050620000d2620000c6620000d860201b60201c565b620000e060201b60201c565b620002bb565b600033905090565b6000600b60009054906101000a900473ffffffffffffffffffffffffffffffffffffffff16905081600b60006101000a81548173ffffffffffffffffffffffffffffffffffffffff021916908373ffffffffffffffffffffffffffffffffffffffff1602179055508173ffffffffffffffffffffffffffffffffffffffff168173ffffffffffffffffffffffffffffffffffffffff167f8be0079c531659141344cd1fd0a4f28419497f9722a3daafe3b4186f6b6457e060405160405180910390a35050565b828054620001b49062000256565b90600052602060002090601f016020900481019282620001d8576000855562000224565b82601f10620001f357805160ff191683800117855562000224565b8280016001018555821562000224579182015b828111156200022357825182559160200191906001019062000206565b5b50905062000233919062000237565b5090565b5b808211156200025257600081600090555060010162000238565b5090565b600060028204905060018216806200026f57607f821691505b602082108114156200028657620002856200028c565b5b50919050565b7f4e487b7100000000000000000000000000000000000000000000000000000000600052602260045260246000fd5b613bdc80620002cb6000396000f3fe608060405234801561001057600080fd5b50600436106101375760003560e01c80636352211e116100b8578063a22cb4651161007c578063a22cb46514610362578063b88d4fde1461037e578063c87b56dd1461039a578063e985e9c5146103ca578063eacabe14146103fa578063f2fde38b1461042a57610137565b80636352211e146102bc57806370a08231146102ec578063715018a61461031c5780638da5cb5b1461032657806395d89b411461034457610137565b80631c701361116100ff5780631c701361146101f457806323b872dd146102245780632f745c591461024057806342842e0e146102705780634f6ccce71461028c57610137565b806301ffc9a71461013c57806306fdde031461016c578063081812fc1461018a578063095ea7b3146101ba57806318160ddd146101d6575b600080fd5b610156600480360381019061015191906128a7565b610446565b6040516101639190612e40565b60405180910390f35b610174610458565b6040516101819190612e5b565b60405180910390f35b6101a4600480360381019061019f91906128f9565b6104ea565b6040516101b19190612db7565b60405180910390f35b6101d460048036038101906101cf919061286b565b61056f565b005b6101de610687565b6040516101eb919061311d565b60405180910390f35b61020e600480360381019061020991906126ac565b610694565b60405161021b9190612e1e565b60405180910390f35b61023e60048036038101906102399190612711565b6107a0565b005b61025a6004803603810190610255919061286b565b610800565b604051610267919061311d565b60405180910390f35b61028a60048036038101906102859190612711565b6108a5565b005b6102a660048036038101906102a191906128f9565b6108c5565b6040516102b3919061311d565b60405180910390f35b6102d660048036038101906102d191906128f9565b61095c565b6040516102e39190612db7565b60405180910390f35b610306600480360381019061030191906126ac565b610a0e565b604051610313919061311d565b60405180910390f35b610324610ac6565b005b61032e610b4e565b60405161033b9190612db7565b60405180910390f35b61034c610b78565b6040516103599190612e5b565b60405180910390f35b61037c600480360381019061037791906127db565b610c0a565b005b61039860048036038101906103939190612760565b610c20565b005b6103b460048036038101906103af91906128f9565b610c82565b6040516103c19190612e5b565b60405180910390f35b6103e460048036038101906103df91906126d5565b610c94565b6040516103f19190612e40565b60405180910390f35b610414600480360381019061040f9190612817565b610d28565b604051610421919061311d565b60405180910390f35b610444600480360381019061043f91906126ac565b610ddc565b005b600061045182610ed4565b9050919050565b606060008054610467906133bd565b80601f0160208091040260200160405190810160405280929190818152602001828054610493906133bd565b80156104e05780601f106104b5576101008083540402835291602001916104e0565b820191906000526020600020905b8154815290600101906020018083116104c357829003601f168201915b5050505050905090565b60006104f582610f4e565b610534576040517f08c379a000000000000000000000000000000000000000000000000000000000815260040161052b9061303d565b60405180910390fd5b6004600083815260200190815260200160002060009054906101000a900473ffffffffffffffffffffffffffffffffffffffff169050919050565b600061057a8261095c565b90508073ffffffffffffffffffffffffffffffffffffffff168373ffffffffffffffffffffffffffffffffffffffff1614156105eb576040517f08c379a00000000000000000000000000000000000000000000000000000000081526004016105e29061309d565b60405180910390fd5b8073ffffffffffffffffffffffffffffffffffffffff1661060a610fba565b73ffffffffffffffffffffffffffffffffffffffff161480610639575061063881610633610fba565b610c94565b5b610678576040517f08c379a000000000000000000000000000000000000000000000000000000000815260040161066f90612f7d565b60405180910390fd5b6106828383610fc2565b505050565b6000600980549050905090565b606060006106a183610a0e565b905060008167ffffffffffffffff8111156106e5577f4e487b7100000000000000000000000000000000000000000000000000000000600052604160045260246000fd5b60405190808252806020026020018201604052801561071857816020015b60608152602001906001900390816107035790505b50905060005b828110156107955760006107328683610800565b905061073d81610c82565b838381518110610776577f4e487b7100000000000000000000000000000000000000000000000000000000600052603260045260246000fd5b602002602001018190525050808061078d90613420565b91505061071e565b508092505050919050565b6107b16107ab610fba565b8261107b565b6107f0576040517f08c379a00000000000000000000000000000000000000000000000000000000081526004016107e7906130dd565b60405180910390fd5b6107fb838383611159565b505050565b600061080b83610a0e565b821061084c576040517f08c379a000000000000000000000000000000000000000000000000000000000815260040161084390612e7d565b60405180910390fd5b600760008473ffffffffffffffffffffffffffffffffffffffff1673ffffffffffffffffffffffffffffffffffffffff168152602001908152602001600020600083815260200190815260200160002054905092915050565b6108c083838360405180602001604052806000815250610c20565b505050565b60006108cf610687565b8210610910576040517f08c379a0000000000000000000000000000000000000000000000000000000008152600401610907906130fd565b60405180910390fd5b6009828154811061094a577f4e487b7100000000000000000000000000000000000000000000000000000000600052603260045260246000fd5b90600052602060002001549050919050565b6000806002600084815260200190815260200160002060009054906101000a900473ffffffffffffffffffffffffffffffffffffffff169050600073ffffffffffffffffffffffffffffffffffffffff168173ffffffffffffffffffffffffffffffffffffffff161415610a05576040517f08c379a00000000000000000000000000000000000000000000000000000000081526004016109fc90612fbd565b60405180910390fd5b80915050919050565b60008073ffffffffffffffffffffffffffffffffffffffff168273ffffffffffffffffffffffffffffffffffffffff161415610a7f576040517f08c379a0000000000000000000000000000000000000000000000000000000008152600401610a7690612f9d565b60405180910390fd5b600360008373ffffffffffffffffffffffffffffffffffffffff1673ffffffffffffffffffffffffffffffffffffffff168152602001908152602001600020549050919050565b610ace610fba565b73ffffffffffffffffffffffffffffffffffffffff16610aec610b4e565b73ffffffffffffffffffffffffffffffffffffffff1614610b42576040517f08c379a0000000000000000000000000000000000000000000000000000000008152600401610b399061305d565b60405180910390fd5b610b4c60006113c0565b565b6000600b60009054906101000a900473ffffffffffffffffffffffffffffffffffffffff16905090565b606060018054610b87906133bd565b80601f0160208091040260200160405190810160405280929190818152602001828054610bb3906133bd565b8015610c005780601f10610bd557610100808354040283529160200191610c00565b820191906000526020600020905b815481529060010190602001808311610be357829003601f168201915b5050505050905090565b610c1c610c15610fba565b8383611486565b5050565b610c31610c2b610fba565b8361107b565b610c70576040517f08c379a0000000000000000000000000000000000000000000000000000000008152600401610c67906130dd565b60405180910390fd5b610c7c848484846115f3565b50505050565b6060610c8d8261164f565b9050919050565b6000600560008473ffffffffffffffffffffffffffffffffffffffff1673ffffffffffffffffffffffffffffffffffffffff16815260200190815260200160002060008373ffffffffffffffffffffffffffffffffffffffff1673ffffffffffffffffffffffffffffffffffffffff16815260200190815260200160002060009054906101000a900460ff16905092915050565b6000610d32610fba565b73ffffffffffffffffffffffffffffffffffffffff16610d50610b4e565b73ffffffffffffffffffffffffffffffffffffffff1614610da6576040517f08c379a0000000000000000000000000000000000000000000000000000000008152600401610d9d9061305d565b60405180910390fd5b610db0600c6117a1565b6000610dbc600c6117b7565b9050610dc884826117c5565b610dd2818461199f565b8091505092915050565b610de4610fba565b73ffffffffffffffffffffffffffffffffffffffff16610e02610b4e565b73ffffffffffffffffffffffffffffffffffffffff1614610e58576040517f08c379a0000000000000000000000000000000000000000000000000000000008152600401610e4f9061305d565b60405180910390fd5b600073ffffffffffffffffffffffffffffffffffffffff168173ffffffffffffffffffffffffffffffffffffffff161415610ec8576040517f08c379a0000000000000000000000000000000000000000000000000000000008152600401610ebf90612ebd565b60405180910390fd5b610ed1816113c0565b50565b60007f780e9d63000000000000000000000000000000000000000000000000000000007bffffffffffffffffffffffffffffffffffffffffffffffffffffffff1916827bffffffffffffffffffffffffffffffffffffffffffffffffffffffff19161480610f475750610f4682611a13565b5b9050919050565b60008073ffffffffffffffffffffffffffffffffffffffff166002600084815260200190815260200160002060009054906101000a900473ffffffffffffffffffffffffffffffffffffffff1673ffffffffffffffffffffffffffffffffffffffff1614159050919050565b600033905090565b816004600083815260200190815260200160002060006101000a81548173ffffffffffffffffffffffffffffffffffffffff021916908373ffffffffffffffffffffffffffffffffffffffff160217905550808273ffffffffffffffffffffffffffffffffffffffff166110358361095c565b73ffffffffffffffffffffffffffffffffffffffff167f8c5be1e5ebec7d5bd14f71427d1e84f3dd0314c0f7b2291e5b200ac8c7c3b92560405160405180910390a45050565b600061108682610f4e565b6110c5576040517f08c379a00000000000000000000000000000000000000000000000000000000081526004016110bc90612f5d565b60405180910390fd5b60006110d08361095c565b90508073ffffffffffffffffffffffffffffffffffffffff168473ffffffffffffffffffffffffffffffffffffffff16148061111257506111118185610c94565b5b8061115057508373ffffffffffffffffffffffffffffffffffffffff16611138846104ea565b73ffffffffffffffffffffffffffffffffffffffff16145b91505092915050565b8273ffffffffffffffffffffffffffffffffffffffff166111798261095c565b73ffffffffffffffffffffffffffffffffffffffff16146111cf576040517f08c379a00000000000000000000000000000000000000000000000000000000081526004016111c690612edd565b60405180910390fd5b600073ffffffffffffffffffffffffffffffffffffffff168273ffffffffffffffffffffffffffffffffffffffff16141561123f576040517f08c379a000000000000000000000000000000000000000000000000000000000815260040161123690612f1d565b60405180910390fd5b61124a838383611af5565b611255600082610fc2565b6001600360008573ffffffffffffffffffffffffffffffffffffffff1673ffffffffffffffffffffffffffffffffffffffff16815260200190815260200160002060008282546112a591906132d3565b925050819055506001600360008473ffffffffffffffffffffffffffffffffffffffff1673ffffffffffffffffffffffffffffffffffffffff16815260200190815260200160002060008282546112fc919061324c565b92505081905550816002600083815260200190815260200160002060006101000a81548173ffffffffffffffffffffffffffffffffffffffff021916908373ffffffffffffffffffffffffffffffffffffffff160217905550808273ffffffffffffffffffffffffffffffffffffffff168473ffffffffffffffffffffffffffffffffffffffff167fddf252ad1be2c89b69c2b068fc378daa952ba7f163c4a11628f55a4df523b3ef60405160405180910390a46113bb838383611bab565b505050565b6000600b60009054906101000a900473ffffffffffffffffffffffffffffffffffffffff16905081600b60006101000a81548173ffffffffffffffffffffffffffffffffffffffff021916908373ffffffffffffffffffffffffffffffffffffffff1602179055508173ffffffffffffffffffffffffffffffffffffffff168173ffffffffffffffffffffffffffffffffffffffff167f8be0079c531659141344cd1fd0a4f28419497f9722a3daafe3b4186f6b6457e060405160405180910390a35050565b8173ffffffffffffffffffffffffffffffffffffffff168373ffffffffffffffffffffffffffffffffffffffff1614156114f5576040517f08c379a00000000000000000000000000000000000000000000000000000000081526004016114ec90612f3d565b60405180910390fd5b80600560008573ffffffffffffffffffffffffffffffffffffffff1673ffffffffffffffffffffffffffffffffffffffff16815260200190815260200160002060008473ffffffffffffffffffffffffffffffffffffffff1673ffffffffffffffffffffffffffffffffffffffff16815260200190815260200160002060006101000a81548160ff0219169083151502179055508173ffffffffffffffffffffffffffffffffffffffff168373ffffffffffffffffffffffffffffffffffffffff167f17307eab39ab6107e8899845ad3d59bd9653f200f220920489ca2b5937696c31836040516115e69190612e40565b60405180910390a3505050565b6115fe848484611159565b61160a84848484611bb0565b611649576040517f08c379a000000000000000000000000000000000000000000000000000000000815260040161164090612e9d565b60405180910390fd5b50505050565b606061165a82610f4e565b611699576040517f08c379a00000000000000000000000000000000000000000000000000000000081526004016116909061301d565b60405180910390fd5b60006006600084815260200190815260200160002080546116b9906133bd565b80601f01602080910402602001604051908101604052809291908181526020018280546116e5906133bd565b80156117325780601f1061170757610100808354040283529160200191611732565b820191906000526020600020905b81548152906001019060200180831161171557829003601f168201915b505050505090506000611743611d47565b905060008151141561175957819250505061179c565b60008251111561178e578082604051602001611776929190612d93565b6040516020818303038152906040529250505061179c565b61179784611d5e565b925050505b919050565b6001816000016000828254019250508190555050565b600081600001549050919050565b600073ffffffffffffffffffffffffffffffffffffffff168273ffffffffffffffffffffffffffffffffffffffff161415611835576040517f08c379a000000000000000000000000000000000000000000000000000000000815260040161182c90612ffd565b60405180910390fd5b61183e81610f4e565b1561187e576040517f08c379a000000000000000000000000000000000000000000000000000000000815260040161187590612efd565b60405180910390fd5b61188a60008383611af5565b6001600360008473ffffffffffffffffffffffffffffffffffffffff1673ffffffffffffffffffffffffffffffffffffffff16815260200190815260200160002060008282546118da919061324c565b92505081905550816002600083815260200190815260200160002060006101000a81548173ffffffffffffffffffffffffffffffffffffffff021916908373ffffffffffffffffffffffffffffffffffffffff160217905550808273ffffffffffffffffffffffffffffffffffffffff16600073ffffffffffffffffffffffffffffffffffffffff167fddf252ad1be2c89b69c2b068fc378daa952ba7f163c4a11628f55a4df523b3ef60405160405180910390a461199b60008383611bab565b5050565b6119a882610f4e565b6119e7576040517f08c379a00000000000000000000000000000000000000000000000000000000081526004016119de90612fdd565b60405180910390fd5b80600660008481526020019081526020016000209080519060200190611a0e9291906124d0565b505050565b60007f80ac58cd000000000000000000000000000000000000000000000000000000007bffffffffffffffffffffffffffffffffffffffffffffffffffffffff1916827bffffffffffffffffffffffffffffffffffffffffffffffffffffffff19161480611ade57507f5b5e139f000000000000000000000000000000000000000000000000000000007bffffffffffffffffffffffffffffffffffffffffffffffffffffffff1916827bffffffffffffffffffffffffffffffffffffffffffffffffffffffff1916145b80611aee5750611aed82611e05565b5b9050919050565b600073ffffffffffffffffffffffffffffffffffffffff168373ffffffffffffffffffffffffffffffffffffffff161480611b5c5750600073ffffffffffffffffffffffffffffffffffffffff168273ffffffffffffffffffffffffffffffffffffffff16145b611b9b576040517f08c379a0000000000000000000000000000000000000000000000000000000008152600401611b92906130bd565b60405180910390fd5b611ba6838383611e6f565b505050565b505050565b6000611bd18473ffffffffffffffffffffffffffffffffffffffff16611f83565b15611d3a578373ffffffffffffffffffffffffffffffffffffffff1663150b7a02611bfa610fba565b8786866040518563ffffffff1660e01b8152600401611c1c9493929190612dd2565b602060405180830381600087803b158015611c3657600080fd5b505af1925050508015611c6757506040513d601f19601f82011682018060405250810190611c6491906128d0565b60015b611cea573d8060008114611c97576040519150601f19603f3d011682016040523d82523d6000602084013e611c9c565b606091505b50600081511415611ce2576040517f08c379a0000000000000000000000000000000000000000000000000000000008152600401611cd990612e9d565b60405180910390fd5b805181602001fd5b63150b7a0260e01b7bffffffffffffffffffffffffffffffffffffffffffffffffffffffff1916817bffffffffffffffffffffffffffffffffffffffffffffffffffffffff191614915050611d3f565b600190505b949350505050565b606060405180602001604052806000815250905090565b6060611d6982610f4e565b611da8576040517f08c379a0000000000000000000000000000000000000000000000000000000008152600401611d9f9061307d565b60405180910390fd5b6000611db2611d47565b90506000815111611dd25760405180602001604052806000815250611dfd565b80611ddc84611fa6565b604051602001611ded929190612d93565b6040516020818303038152906040525b915050919050565b60007f01ffc9a7000000000000000000000000000000000000000000000000000000007bffffffffffffffffffffffffffffffffffffffffffffffffffffffff1916827bffffffffffffffffffffffffffffffffffffffffffffffffffffffff1916149050919050565b611e7a838383612153565b600073ffffffffffffffffffffffffffffffffffffffff168373ffffffffffffffffffffffffffffffffffffffff161415611ebd57611eb881612158565b611efc565b8173ffffffffffffffffffffffffffffffffffffffff168373ffffffffffffffffffffffffffffffffffffffff1614611efb57611efa83826121a1565b5b5b600073ffffffffffffffffffffffffffffffffffffffff168273ffffffffffffffffffffffffffffffffffffffff161415611f3f57611f3a8161230e565b611f7e565b8273ffffffffffffffffffffffffffffffffffffffff168273ffffffffffffffffffffffffffffffffffffffff1614611f7d57611f7c8282612451565b5b5b505050565b6000808273ffffffffffffffffffffffffffffffffffffffff163b119050919050565b60606000821415611fee576040518060400160405280600181526020017f3000000000000000000000000000000000000000000000000000000000000000815250905061214e565b600082905060005b6000821461202057808061200990613420565b915050600a8261201991906132a2565b9150611ff6565b60008167ffffffffffffffff811115612062577f4e487b7100000000000000000000000000000000000000000000000000000000600052604160045260246000fd5b6040519080825280601f01601f1916602001820160405280156120945781602001600182028036833780820191505090505b5090505b60008514612147576001826120ad91906132d3565b9150600a856120bc9190613469565b60306120c8919061324c565b60f81b818381518110612104577f4e487b7100000000000000000000000000000000000000000000000000000000600052603260045260246000fd5b60200101907effffffffffffffffffffffffffffffffffffffffffffffffffffffffffffff1916908160001a905350600a8561214091906132a2565b9450612098565b8093505050505b919050565b505050565b600980549050600a600083815260200190815260200160002081905550600981908060018154018082558091505060019003906000526020600020016000909190919091505550565b600060016121ae84610a0e565b6121b891906132d3565b905060006008600084815260200190815260200160002054905081811461229d576000600760008673ffffffffffffffffffffffffffffffffffffffff1673ffffffffffffffffffffffffffffffffffffffff168152602001908152602001600020600084815260200190815260200160002054905080600760008773ffffffffffffffffffffffffffffffffffffffff1673ffffffffffffffffffffffffffffffffffffffff168152602001908152602001600020600084815260200190815260200160002081905550816008600083815260200190815260200160002081905550505b6008600084815260200190815260200160002060009055600760008573ffffffffffffffffffffffffffffffffffffffff1673ffffffffffffffffffffffffffffffffffffffff16815260200190815260200160002060008381526020019081526020016000206000905550505050565b6000600160098054905061232291906132d3565b90506000600a6000848152602001908152602001600020549050600060098381548110612378577f4e487b7100000000000000000000000000000000000000000000000000000000600052603260045260246000fd5b9060005260206000200154905080600983815481106123c0577f4e487b7100000000000000000000000000000000000000000000000000000000600052603260045260246000fd5b906000526020600020018190555081600a600083815260200190815260200160002081905550600a6000858152602001908152602001600020600090556009805480612435577f4e487b7100000000000000000000000000000000000000000000000000000000600052603160045260246000fd5b6001900381819060005260206000200160009055905550505050565b600061245c83610a0e565b905081600760008573ffffffffffffffffffffffffffffffffffffffff1673ffffffffffffffffffffffffffffffffffffffff168152602001908152602001600020600083815260200190815260200160002081905550806008600084815260200190815260200160002081905550505050565b8280546124dc906133bd565b90600052602060002090601f0160209004810192826124fe5760008555612545565b82601f1061251757805160ff1916838001178555612545565b82800160010185558215612545579182015b82811115612544578251825591602001919060010190612529565b5b5090506125529190612556565b5090565b5b8082111561256f576000816000905550600101612557565b5090565b60006125866125818461315d565b613138565b90508281526020810184848401111561259e57600080fd5b6125a984828561337b565b509392505050565b60006125c46125bf8461318e565b613138565b9050828152602081018484840111156125dc57600080fd5b6125e784828561337b565b509392505050565b6000813590506125fe81613b4a565b92915050565b60008135905061261381613b61565b92915050565b60008135905061262881613b78565b92915050565b60008151905061263d81613b78565b92915050565b600082601f83011261265457600080fd5b8135612664848260208601612573565b91505092915050565b600082601f83011261267e57600080fd5b813561268e8482602086016125b1565b91505092915050565b6000813590506126a681613b8f565b92915050565b6000602082840312156126be57600080fd5b60006126cc848285016125ef565b91505092915050565b600080604083850312156126e857600080fd5b60006126f6858286016125ef565b9250506020612707858286016125ef565b9150509250929050565b60008060006060848603121561272657600080fd5b6000612734868287016125ef565b9350506020612745868287016125ef565b925050604061275686828701612697565b9150509250925092565b6000806000806080858703121561277657600080fd5b6000612784878288016125ef565b9450506020612795878288016125ef565b93505060406127a687828801612697565b925050606085013567ffffffffffffffff8111156127c357600080fd5b6127cf87828801612643565b91505092959194509250565b600080604083850312156127ee57600080fd5b60006127fc858286016125ef565b925050602061280d85828601612604565b9150509250929050565b6000806040838503121561282a57600080fd5b6000612838858286016125ef565b925050602083013567ffffffffffffffff81111561285557600080fd5b6128618582860161266d565b9150509250929050565b6000806040838503121561287e57600080fd5b600061288c858286016125ef565b925050602061289d85828601612697565b9150509250929050565b6000602082840312156128b957600080fd5b60006128c784828501612619565b91505092915050565b6000602082840312156128e257600080fd5b60006128f08482850161262e565b91505092915050565b60006020828403121561290b57600080fd5b600061291984828501612697565b91505092915050565b600061292e8383612a02565b905092915050565b61293f81613307565b82525050565b6000612950826131cf565b61295a81856131fd565b93508360208202850161296c856131bf565b8060005b858110156129a857848403895281516129898582612922565b9450612994836131f0565b925060208a01995050600181019050612970565b50829750879550505050505092915050565b6129c381613319565b82525050565b60006129d4826131da565b6129de818561320e565b93506129ee81856020860161338a565b6129f781613556565b840191505092915050565b6000612a0d826131e5565b612a17818561321f565b9350612a2781856020860161338a565b612a3081613556565b840191505092915050565b6000612a46826131e5565b612a508185613230565b9350612a6081856020860161338a565b612a6981613556565b840191505092915050565b6000612a7f826131e5565b612a898185613241565b9350612a9981856020860161338a565b80840191505092915050565b6000612ab2602b83613230565b9150612abd82613567565b604082019050919050565b6000612ad5603283613230565b9150612ae0826135b6565b604082019050919050565b6000612af8602683613230565b9150612b0382613605565b604082019050919050565b6000612b1b602583613230565b9150612b2682613654565b604082019050919050565b6000612b3e601c83613230565b9150612b49826136a3565b602082019050919050565b6000612b61602483613230565b9150612b6c826136cc565b604082019050919050565b6000612b84601983613230565b9150612b8f8261371b565b602082019050919050565b6000612ba7602c83613230565b9150612bb282613744565b604082019050919050565b6000612bca603883613230565b9150612bd582613793565b604082019050919050565b6000612bed602a83613230565b9150612bf8826137e2565b604082019050919050565b6000612c10602983613230565b9150612c1b82613831565b604082019050919050565b6000612c33602e83613230565b9150612c3e82613880565b604082019050919050565b6000612c56602083613230565b9150612c61826138cf565b602082019050919050565b6000612c79603183613230565b9150612c84826138f8565b604082019050919050565b6000612c9c602c83613230565b9150612ca782613947565b604082019050919050565b6000612cbf602083613230565b9150612cca82613996565b602082019050919050565b6000612ce2602f83613230565b9150612ced826139bf565b604082019050919050565b6000612d05602183613230565b9150612d1082613a0e565b604082019050919050565b6000612d28602e83613230565b9150612d3382613a5d565b604082019050919050565b6000612d4b603183613230565b9150612d5682613aac565b604082019050919050565b6000612d6e602c83613230565b9150612d7982613afb565b604082019050919050565b612d8d81613371565b82525050565b6000612d9f8285612a74565b9150612dab8284612a74565b91508190509392505050565b6000602082019050612dcc6000830184612936565b92915050565b6000608082019050612de76000830187612936565b612df46020830186612936565b612e016040830185612d84565b8181036060830152612e1381846129c9565b905095945050505050565b60006020820190508181036000830152612e388184612945565b905092915050565b6000602082019050612e5560008301846129ba565b92915050565b60006020820190508181036000830152612e758184612a3b565b905092915050565b60006020820190508181036000830152612e9681612aa5565b9050919050565b60006020820190508181036000830152612eb681612ac8565b9050919050565b60006020820190508181036000830152612ed681612aeb565b9050919050565b60006020820190508181036000830152612ef681612b0e565b9050919050565b60006020820190508181036000830152612f1681612b31565b9050919050565b60006020820190508181036000830152612f3681612b54565b9050919050565b60006020820190508181036000830152612f5681612b77565b9050919050565b60006020820190508181036000830152612f7681612b9a565b9050919050565b60006020820190508181036000830152612f9681612bbd565b9050919050565b60006020820190508181036000830152612fb681612be0565b9050919050565b60006020820190508181036000830152612fd681612c03565b9050919050565b60006020820190508181036000830152612ff681612c26565b9050919050565b6000602082019050818103600083015261301681612c49565b9050919050565b6000602082019050818103600083015261303681612c6c565b9050919050565b6000602082019050818103600083015261305681612c8f565b9050919050565b6000602082019050818103600083015261307681612cb2565b9050919050565b6000602082019050818103600083015261309681612cd5565b9050919050565b600060208201905081810360008301526130b681612cf8565b9050919050565b600060208201905081810360008301526130d681612d1b565b9050919050565b600060208201905081810360008301526130f681612d3e565b9050919050565b6000602082019050818103600083015261311681612d61565b9050919050565b60006020820190506131326000830184612d84565b92915050565b6000613142613153565b905061314e82826133ef565b919050565b6000604051905090565b600067ffffffffffffffff82111561317857613177613527565b5b61318182613556565b9050602081019050919050565b600067ffffffffffffffff8211156131a9576131a8613527565b5b6131b282613556565b9050602081019050919050565b6000819050602082019050919050565b600081519050919050565b600081519050919050565b600081519050919050565b6000602082019050919050565b600082825260208201905092915050565b600082825260208201905092915050565b600082825260208201905092915050565b600082825260208201905092915050565b600081905092915050565b600061325782613371565b915061326283613371565b9250827fffffffffffffffffffffffffffffffffffffffffffffffffffffffffffffffff038211156132975761329661349a565b5b828201905092915050565b60006132ad82613371565b91506132b883613371565b9250826132c8576132c76134c9565b5b828204905092915050565b60006132de82613371565b91506132e983613371565b9250828210156132fc576132fb61349a565b5b828203905092915050565b600061331282613351565b9050919050565b60008115159050919050565b60007fffffffff0000000000000000000000000000000000000000000000000000000082169050919050565b600073ffffffffffffffffffffffffffffffffffffffff82169050919050565b6000819050919050565b82818337600083830152505050565b60005b838110156133a857808201518184015260208101905061338d565b838111156133b7576000848401525b50505050565b600060028204905060018216806133d557607f821691505b602082108114156133e9576133e86134f8565b5b50919050565b6133f882613556565b810181811067ffffffffffffffff8211171561341757613416613527565b5b80604052505050565b600061342b82613371565b91507fffffffffffffffffffffffffffffffffffffffffffffffffffffffffffffffff82141561345e5761345d61349a565b5b600182019050919050565b600061347482613371565b915061347f83613371565b92508261348f5761348e6134c9565b5b828206905092915050565b7f4e487b7100000000000000000000000000000000000000000000000000000000600052601160045260246000fd5b7f4e487b7100000000000000000000000000000000000000000000000000000000600052601260045260246000fd5b7f4e487b7100000000000000000000000000000000000000000000000000000000600052602260045260246000fd5b7f4e487b7100000000000000000000000000000000000000000000000000000000600052604160045260246000fd5b6000601f19601f8301169050919050565b7f455243373231456e756d657261626c653a206f776e657220696e646578206f7560008201527f74206f6620626f756e6473000000000000000000000000000000000000000000602082015250565b7f4552433732313a207472616e7366657220746f206e6f6e20455243373231526560008201527f63656976657220696d706c656d656e7465720000000000000000000000000000602082015250565b7f4f776e61626c653a206e6577206f776e657220697320746865207a65726f206160008201527f6464726573730000000000000000000000000000000000000000000000000000602082015250565b7f4552433732313a207472616e736665722066726f6d20696e636f72726563742060008201527f6f776e6572000000000000000000000000000000000000000000000000000000602082015250565b7f4552433732313a20746f6b656e20616c7265616479206d696e74656400000000600082015250565b7f4552433732313a207472616e7366657220746f20746865207a65726f2061646460008201527f7265737300000000000000000000000000000000000000000000000000000000602082015250565b7f4552433732313a20617070726f766520746f2063616c6c657200000000000000600082015250565b7f4552433732313a206f70657261746f7220717565727920666f72206e6f6e657860008201527f697374656e7420746f6b656e0000000000000000000000000000000000000000602082015250565b7f4552433732313a20617070726f76652063616c6c6572206973206e6f74206f7760008201527f6e6572206e6f7220617070726f76656420666f7220616c6c0000000000000000602082015250565b7f4552433732313a2062616c616e636520717565727920666f7220746865207a6560008201527f726f206164647265737300000000000000000000000000000000000000000000602082015250565b7f4552433732313a206f776e657220717565727920666f72206e6f6e657869737460008201527f656e7420746f6b656e0000000000000000000000000000000000000000000000602082015250565b7f45524337323155524953746f726167653a2055524920736574206f66206e6f6e60008201527f6578697374656e7420746f6b656e000000000000000000000000000000000000602082015250565b7f4552433732313a206d696e7420746f20746865207a65726f2061646472657373600082015250565b7f45524337323155524953746f726167653a2055524920717565727920666f722060008201527f6e6f6e6578697374656e7420746f6b656e000000000000000000000000000000602082015250565b7f4552433732313a20617070726f76656420717565727920666f72206e6f6e657860008201527f697374656e7420746f6b656e0000000000000000000000000000000000000000602082015250565b7f4f776e61626c653a2063616c6c6572206973206e6f7420746865206f776e6572600082015250565b7f4552433732314d657461646174613a2055524920717565727920666f72206e6f60008201527f6e6578697374656e7420746f6b656e0000000000000000000000000000000000602082015250565b7f4552433732313a20617070726f76616c20746f2063757272656e74206f776e6560008201527f7200000000000000000000000000000000000000000000000000000000000000602082015250565b7f4e6f6e5472616e736665727261626c65455243373231546f6b656e3a206e6f6e60008201527f207472616e736665727261626c65000000000000000000000000000000000000602082015250565b7f4552433732313a207472616e736665722063616c6c6572206973206e6f74206f60008201527f776e6572206e6f7220617070726f766564000000000000000000000000000000602082015250565b7f455243373231456e756d657261626c653a20676c6f62616c20696e646578206f60008201527f7574206f6620626f756e64730000000000000000000000000000000000000000602082015250565b613b5381613307565b8114613b5e57600080fd5b50565b613b6a81613319565b8114613b7557600080fd5b50565b613b8181613325565b8114613b8c57600080fd5b50565b613b9881613371565b8114613ba357600080fd5b5056fea26469706673582212201f3279da89602a0d99174874ed3078c8771ac9d5e32334ddbb1f340fffd9884764736f6c63430008040033",
  "linkReferences": {},
  "deployedLinkReferences": {}
}